:100000000C942A000C9447000C9447000C94470071
:100010000C9447000C9447000C94FD050C942A06A0
:100020000C94D0050C9447000C9447000C944700A6
:100030000C9447000C9447000C9447000C94470024
:100040000C9447000C9447000C9447000C94470014
:100050000C94470011241FBECFE5D4E0DEBFCDBF16
:1000600010E0A0E6B0E0E6E3FBE102C005900D92EF
:10007000A237B107D9F710E0A2E7B0E001C01D92A6
:10008000AB37B107E1F70E9449000C94990D0C942D
:100090000000DF93CF9300D0CDB7DEB70E94F60209
:1000A0000E948D07282F30E03A83298389819A8125
:1000B00084319105F1F029813A812531310534F4FB
:1000C00089819A818A30910579F0EACF29813A8134
:1000D0002E31310531F089819A818233910561F0A9
:1000E000DFCF0E945102DCCF0E9411020E94370232
:1000F000D7CF0E94B503D4CF0E948203D1CFDF9324
:10010000CF93CDB7DEB7A1E3B0E0E1E3F0E08081CB
:1001100084608C93A2E3B0E0E2E3F0E080818B7F27
:100120008C93CF91DF910895DF93CF93CDB7DEB756
:10013000A2E3B0E0E2E3F0E0808184608C93CF91B1
:10014000DF910895DF93CF93CDB7DEB7A2E3B0E0A0
:10015000E2E3F0E080818B7F8C93CF91DF91089573
:10016000DF93CF93CDB7DEB70E94F303CF91DF913A
:100170000895DF93CF9300D000D0CDB7DEB79A8338
:1001800089836B830E9409040E946104883011F006
:100190001C8228C089819A8180709770880F892F6E
:1001A000881F990B9195806A0E9424040E94610423
:1001B000883111F01C8216C089810E9424040E949B
:1001C0006104883211F01C820DC08B810E942404CE
:1001D0000E946104883211F01C8204C00E9419043C
:1001E00081E08C838C810F900F900F900F90CF91B6
:1001F000DF910895DF93CF9300D000D00F92CDB759
:10020000DEB79A8389837C836B830E9409040E94F2
:100210006104883011F01D8244C089819A81807008
:100220009770880F892F881F990B9195806A0E947B
:1002300024040E946104883111F01D8232C089813A
:100240000E9424040E946104883211F01D8229C09A
:100250000E9409040E946104803111F01D8221C0B6
:1002600089819A8180709770880F892F881F990BD8
:100270009195816A0E9424040E946104803411F0E7
:100280001D820FC00E944E04EB81FC8180830E947E
:100290006104883511F01D8204C00E94190481E0B8
:1002A0008D838D810F900F900F900F900F90CF91B5
:1002B000DF910895DF93CF93CDB7DEB767970FB681
:1002C000F894DEBF0FBECDBF188A1F8698C08F85F9
:1002D00098890596AC018F8598899E012F5E3F4FC6
:1002E000280F391FCA01B9010E94FA0080E090E08E
:1002F000A0E2B1E48B879C87AD87BE876B857C8548
:100300008D859E8520E030E04AEF54E40E94DE09AE
:10031000DC01CB018F839887A987BA876F817885A5
:1003200089859A8520E030E040E85FE30E94380B41
:1003300088232CF481E090E09E838D833FC06F8101
:10034000788589859A8520E03FEF4FE757E40E9442
:10035000D80A18164CF56B857C858D859E8520E026
:1003600030E040E251E40E94DE09DC01CB01BC0137
:10037000CD010E940808DC01CB019E838D830FC054
:1003800088EC90E09C838B838B819C810197F1F7B3
:100390009C838B838D819E8101979E838D838D812C
:1003A0009E81009769F714C06F81788589859A8549
:1003B0000E940808DC01CB019E838D838D819E8184
:1003C0009A83898389819A810197F1F79A83898336
:1003D0002F853889CE014196FC01E20FF31F208161
:1003E0008F859889FC01ED58FF4F8081281711F007
:1003F0001F8A0DC08F8598890196988B8F878F856E
:100400009889863091050CF462CF81E08F8B8F89BB
:1004100067960FB6F894DEBF0FBECDBFCF91DF91C8
:1004200008950F931F93DF93CF9300D0CDB7DEB71E
:1004300088E20E9476071A8219820DC009811A810A
:100440000E948D07F801ED58FF4F808389819A81C2
:1004500001969A83898389819A818630910574F304
:100460000F900F90CF91DF911F910F910895DF931F
:10047000CF93CDB7DEB70E945A01882341F00E9486
:100480008D078832E1F781E00E94760707C00E945D
:100490008D078832E1F780E00E947607CF91DF91E7
:1004A00008950F931F93DF93CF93CDB7DEB7609777
:1004B0000FB6F894DEBF0FBECDBF88E20E9476076C
:1004C000188A1F8682C08F85988905968C010E94A4
:1004D0008D07282FC801622F0E94B90080E090E0AC
:1004E000A0E2B1E48B879C87AD87BE876B857C8556
:1004F0008D859E8520E030E04AEF54E40E94DE09BD
:10050000DC01CB018F839887A987BA876F817885B3
:1005100089859A8520E030E040E85FE30E94380B4F
:1005200088232CF481E090E09E838D833FC06F810F
:10053000788589859A8520E03FEF4FE757E40E9450
:10054000D80A18164CF56B857C858D859E8520E034
:1005500030E040E251E40E94DE09DC01CB01BC0145
:10056000CD010E940808DC01CB019E838D830FC062
:1005700088EC90E09C838B838B819C810197F1F7C1
:100580009C838B838D819E8101979E838D838D813A
:100590009E81009769F714C06F81788589859A8557
:1005A0000E940808DC01CB019E838D838D819E8192
:1005B0009A83898389819A810197F1F79A83898344
:1005C0008F8598890196988B8F878F85988986303B
:1005D00091050CF478CF60960FB6F894DEBF0FBE8D
:1005E000CDBFCF91DF911F910F910895DF93CF93EE
:1005F000CDB7DEB72E970FB6F894DEBF0FBECDBFD6
:100600000E945C0780E090E0A0E2B1E48B879C87C9
:10061000AD87BE876B857C858D859E8520E030E02B
:100620004AEF54E40E94DE09DC01CB018F839887F6
:10063000A987BA876F81788589859A8520E030E01F
:1006400040E85FE30E94380B88232CF481E090E0BF
:100650009E838D833FC06F81788589859A8520E050
:100660003FEF4FE757E40E94D80A18164CF56B8508
:100670007C858D859E8520E030E040E251E40E943B
:10068000DE09DC01CB01BC01CD010E940808DC01C0
:10069000CB019E838D830FC088EC90E09C838B837D
:1006A0008B819C810197F1F79C838B838D819E8147
:1006B00001979E838D838D819E81009769F714C079
:1006C0006F81788589859A850E940808DC01CB01B5
:1006D0009E838D838D819E819A83898389819A816E
:1006E0000197F1F79A8389830E94B00088E20E9403
:1006F00076072E960FB6F894DEBF0FBECDBFCF9112
:10070000DF910895DF93CF93CDB7DEB7AFE5B0E0CB
:10071000EFE5F0E0808180688C938CE993E00E94A3
:100720002B070E947F000E94940080E690E00E94C8
:100730005706CF91DF910895DF93CF93CDB7DEB702
:10074000809172008F5F809372008091720082307E
:1007500049F40E94A200109272008CE30E94760776
:100760000E943D07CF91DF910895DF93CF93CDB7DE
:10077000DEB710927200AFE5B0E0EFE5F0E0808107
:1007800080688C9381ED93E00E942B070E946E0598
:100790000E94910580E690E00E945706CF91DF917C
:1007A0000895DF93CF93CDB7DEB7809172008F5F4E
:1007B0008093720080917200823029F486E40E9456
:1007C00076070E94A60580917200843049F40E9449
:1007D000BB0580E50E947607109272000E943D07DB
:1007E000CF91DF910895DF93CF93CDB7DEB7E0E2ED
:1007F000F0E082E08083E1E2F0E01082E2E2F0E00B
:1008000082E08083E6E5F0E084E08083CF91DF91B1
:100810000895DF93CF93CDB7DEB7E6E5F0E084EA45
:100820008083E6E5F0E080818823DCF7CF91DF91DB
:100830000895DF93CF93CDB7DEB7E6E5F0E084E926
:100840008083CF91DF910895DF93CF930F92CDB73F
:10085000DEB78983E3E2F0E089818083E6E5F0E0BA
:1008600084E88083E6E5F0E080818823DCF70F9060
:10087000CF91DF910895DF93CF93CDB7DEB7E6E553
:10088000F0E084EC8083E6E5F0E080818823DCF70B
:10089000E3E2F0E08081CF91DF910895DF93CF9381
:1008A000CDB7DEB7E6E5F0E084E88083E6E5F0E08A
:1008B00080818823DCF7E3E2F0E08081CF91DF9153
:1008C0000895DF93CF930F92CDB7DEB7E1E2F0E06A
:1008D0008081887F898389810F90CF91DF910895EE
:1008E000DF93CF9300D0CDB7DEB71A824CC0E4E3DC
:1008F000F0E08A81282F30E080E190E002C0880F8C
:10090000991F2A95E2F78083E5E3F0E08A81282F9A
:1009100030E080E190E0022E02C0880F991F0A9417
:10092000E2F780958083198228C0E3E3F0E08081BC
:10093000282F30E08981882F90E0A90102C05595C9
:1009400047958A95E2F7CA0181709070009791F4FB
:100950008981882F90E0880F991F880F991F982F01
:100960008A81890F8F5F0E94C8040F900F90CF91EA
:10097000DF91089589818F5F898389818430A8F20E
:100980008A818F5F8A838A81843008F4B0CFADCFAB
:10099000DF93CF9300D000D0CDB7DEB789838981B4
:1009A000282F30E03C832B838B819C8188309105FC
:1009B00009F470C02B813C81293031055CF58B81B5
:1009C0009C818430910509F459C02B813C812530EC
:1009D00031059CF48B819C818230910509F448C0DB
:1009E0002B813C81233031050CF045C08B819C81EB
:1009F0008130910509F439C067C02B813C812630D4
:100A0000310509F441C08B819C81873091050CF040
:100A10003EC037C02B813C812C30310509F446C0E3
:100A20008B819C818D3091055CF42B813C812A3037
:100A30003105B1F18B819C818B309105A4F52DC0DE
:100A40002B813C812E303105B9F18B819C818E3018
:100A500091057CF12B813C812F30310579F18B811F
:100A60009C818031910569F12FC097E09A832EC057
:100A700028E02A832BC039E03A8328C085E28A83A4
:100A800025C094E09A8322C025E02A831FC036E067
:100A90003A831CC08AE28A8319C091E09A8316C007
:100AA00022E02A8313C033E03A8310C08DE28A83A8
:100AB0000DC09DE09A830AC01A8208C02DE32A83E4
:100AC00005C03BE23A8302C089818A838A810F9004
:100AD0000F900F900F90CF91DF910895DF93CF93F8
:100AE000CDB7DEB7AAE3B0E0EAE3F0E08081816051
:100AF0008C93AAE3B0E0EAE3F0E0808182608C931B
:100B0000ABE3B0E0EBE3F0E080818E7F8C93ABE36E
:100B1000B0E0EBE3F0E080818D7F8C93CF91DF91AB
:100B20000895DF93CF93CDB7DEB7ABE3B0E0EBE34F
:100B3000F0E080818E7F8C93ABE3B0E0EBE3F0E0FC
:100B4000808182608C93CF91DF910895DF93CF9362
:100B5000CDB7DEB7ABE3B0E0EBE3F0E080818160DE
:100B60008C93ABE3B0E0EBE3F0E080818D7F8C937E
:100B7000CF91DF910895DF93CF93CDB7DEB7ABE38D
:100B8000B0E0EBE3F0E080818E7F8C93ABE3B0E0EC
:100B9000EBE3F0E080818D7F8C93CF91DF9108951E
:100BA0001F920F920FB60F9211242F933F934F93E2
:100BB0005F936F937F938F939F93AF93BF93EF93C5
:100BC000FF93DF93CF93CDB7DEB7E0917900F0913B
:100BD0007A000995CF91DF91FF91EF91BF91AF918D
:100BE0009F918F917F916F915F914F913F912F9145
:100BF0000F900FBE0F901F9018951F920F920FB677
:100C00000F9211242F933F934F935F936F937F9392
:100C10008F939F93AF93BF93EF93FF93DF93CF9304
:100C2000CDB7DEB7E0917900F0917A000995CF91C8
:100C3000DF91FF91EF91BF91AF919F918F917F9144
:100C40006F915F914F913F912F910F900FBE0F9039
:100C50001F9018951F920F920FB60F9211242F9389
:100C60003F934F935F936F937F938F939F93AF9334
:100C7000BF93EF93FF93DF93CF93CDB7DEB7E091B0
:100C80007900F0917A000995CF91DF91FF91EF9172
:100C9000BF91AF919F918F917F916F915F914F9194
:100CA0003F912F910F900FBE0F901F901895DF93DB
:100CB000CF9300D0CDB7DEB79A838983E981FA81DB
:100CC00082819381009769F5AFE4B0E0EFE4F0E052
:100CD000808188608C93AFE4B0E0EFE4F0E0808145
:100CE00084608C93AEE4B0E0EEE4F0E08081282FE5
:100CF000287FE981FA81808191818770822B8C9392
:100D0000ACE4B0E0E981FA818581968111969C93EB
:100D10008E93A9E5B0E0E9E5F0E0808184608C93F2
:100D200095C0E981FA81828193818130910509F032
:100D30008DC0E981FA818481813429F0E981FA81C9
:100D400084818136E9F5AFE4B0E0EFE4F0E0808142
:100D500088608C93AFE4B0E0EFE4F0E080818460E1
:100D60008C93AEE4B0E0EEE4F0E0808188608C9398
:100D7000AEE4B0E0EEE4F0E08081282F287FE98146
:100D8000FA81808191818770822B8C93ACE4B0E0F2
:100D9000E981FA818581968111969C938E93AAE4CC
:100DA000B0E0E981FA818781908511969C938E93BA
:100DB000A9E5B0E0E9E5F0E0808180618C9346C070
:100DC000E981FA818481823429F0E981FA81848180
:100DD0008236E1F5AFE4B0E0EFE4F0E080818860D6
:100DE0008C93AFE4B0E0EFE4F0E0808184608C931A
:100DF000AEE4B0E0EEE4F0E0808188608C93AEE495
:100E0000B0E0EEE4F0E08081282F287FE981FA81CC
:100E1000808191818770822B8C93ACE4B0E0E98172
:100E2000FA818581968111969C938E93A8E4B0E017
:100E3000E981FA818781908511969C938E93A9E52B
:100E4000B0E0E9E5F0E0808188608C930F900F902E
:100E5000CF91DF910895DF93CF9300D0CDB7DEB768
:100E60009A83898389819A8190937A00809379000B
:100E70000F900F90CF91DF910895DF93CF93CDB76F
:100E8000DEB7EFE4F0E01082EEE4F0E01082EAE496
:100E9000F0E011821082A9E5B0E0E9E5F0E08081A0
:100EA0008F7E8C93A9E5B0E0E9E5F0E08081877F53
:100EB0008C93CF91DF910895DF93CF93CDB7DEB7B9
:100EC000EBE2F0E082E08083EAE2F0E088E1808318
:100ED000E0E4F0E086E88083E0E4F0E01082E9E21C
:100EE000F0E087E68083CF91DF910895DF93CF9381
:100EF0000F92CDB7DEB78983EBE2F0E08081882FD7
:100F000090E0807290700097B9F3ECE2F0E0898194
:100F100080830F90CF91DF910895DF93CF93CDB76A
:100F2000DEB7EBE2F0E080818823DCF7ECE2F0E072
:100F30008081CF91DF910895DF93CF9300D00F92FE
:100F4000CDB7DEB79B838A8319820EC08981282F93
:100F500030E08A819B81FC01E20FF31F80810E94B7
:100F6000760789818F5F89838981282F30E08A8184
:100F70009B81FC01E20FF31F8081882339F70F90DA
:100F80000F900F90CF91DF9108950F931F93DF93F0
:100F9000CF9300D00F92CDB7DEB79B838A8319829F
:100FA0008981282F30E08A819B818C01020F131FD9
:100FB0000E948D07F80180830FC089818F5F89832C
:100FC0008981282F30E08A819B818C01020F131FB9
:100FD0000E948D07F80180838981282F30E08A8163
:100FE0009B81FC01E20FF31F8081833231F78981FD
:100FF000282F30E08A819B81FC01E20FF31F1082D1
:101000000F900F900F90CF91DF911F910F91089546
:10101000EF92FF920F931F937B018C0120E030E051
:1010200040E05FE40E94080B88238CF0C801B70100
:1010300020E030E040E05FE40E9480090E94680BFD
:101040009B01AC01205030404040504806C0C801D0
:10105000B7010E94680B9B01AC01B901CA011F9145
:101060000F91FF90EF900895A0E0B0E0EAE3F8E080
:101070000C94620DDC012B01FA019C91923008F472
:1010800039C1EB018881823008F433C1943069F4AE
:10109000843009F02FC111969C911197898198177E
:1010A00009F428C1A9E6B0E025C1843009F421C1C2
:1010B0008230A9F4923009F01DC19A01AD0188E097
:1010C000EA010990AE01E90109929E018150C1F740
:1010D000E201898111969C918923818308C1923014
:1010E00009F407C112962D903C901397EB018A8169
:1010F0009B811496AD90BD90CD90DC901797EC80BD
:10110000FD800E811F819101281B390BB90137FF2A
:1011100004C066277727621B730B603271050CF0E1
:1011200061C0121613066CF537014801062E04C083
:1011300096948794779467940A94D2F721E030E0EC
:1011400040E050E004C0220F331F441F551F6A9532
:10115000D2F721503040404050402E213F214023C3
:101160005123211531054105510521F021E030E0E1
:1011700040E050E079018A01E628F728082919297A
:101180003CC0232BD1F1260E371E35014601062E19
:1011900004C096948794779467940A94D2F721E0D8
:1011A00030E040E050E004C0220F331F441F551FC1
:1011B0006A95D2F721503040404050402A213B21CF
:1011C0004C215D21211531054105510521F021E01A
:1011D00030E040E050E059016A01A628B728C8284D
:1011E000D9280BC0821593052CF01C01AA24BB241E
:1011F000650103C0EE24FF24870111969C91D20162
:1012000011968C91981709F445C0992339F0A801DB
:1012100097012A193B094C095D0906C0A6019501F1
:101220002E193F09400B510B57FD08C01182338224
:10123000228224833583468357831DC081E08183C6
:101240003382228288279927DC01821B930BA40B0F
:10125000B50B84839583A683B7830DC0220F331FFC
:10126000441F551F2483358346835783828193818E
:101270000197938382832481358146815781DA01E6
:10128000C9010197A109B1098F5F9F4FAF4FBF43BC
:1012900028F30BC0918333822282EA0CFB1C0C1DC5
:1012A0001D1DE482F5820683178383E080832481F9
:1012B00035814681578157FF1AC0C901AA2797FD7A
:1012C000A095BA2F81709070A070B0705695479518
:1012D00037952795822B932BA42BB52B848395834D
:1012E000A683B78382819381019693838283DF01F2
:1012F00001C0D201CD01CDB7DEB7E2E10C947E0D85
:10130000A0E2B0E0E6E8F9E00C946E0D69837A8320
:101310008B839C832D833E834F835887E9E0EE2E99
:10132000F12CEC0EFD1ECE010196B7010E94910C2E
:101330008E010F5E1F4FCE010596B8010E94910CE1
:101340008A8991E089278A8BC701B801AE01475E7F
:101350005F4F0E9434080E94BC0BA096E6E00C94FC
:101360008A0DA0E2B0E0E7EBF9E00C946E0D698322
:101370007A838B839C832D833E834F835887F9E048
:10138000EF2EF12CEC0EFD1ECE010196B7010E944E
:10139000910C8E010F5E1F4FCE010596B8010E9481
:1013A000910CC701B801AE01475E5F4F0E9434083F
:1013B0000E94BC0BA096E6E00C948A0DA0E2B0E07F
:1013C000E4EEF9E00C94620D69837A838B839C834D
:1013D0002D833E834F835887CE010196BE01675F00
:1013E0007F4F0E94910CCE010596BE016F5E7F4F2C
:1013F0000E94910C9985923088F089898230C8F0DA
:10140000943019F4823051F404C0843029F49230BD
:1014100081F489E690E0C6C0923049F420E09A85D4
:101420008A89981321E02A87CE010996BBC08230B1
:1014300049F420E09A858A89981321E02A8BCE010D
:101440004196B0C02D843E844F8458886D887E8834
:101450008F88988CEE24FF248701AA24BB24650181
:1014600040E050E060E070E0E0E0F0E0C101817059
:101470009070892BE9F0E60CF71C081D191D9A01E4
:10148000AB012A0D3B1D4C1D5D1D80E090E0A0E0EE
:10149000B0E0E614F7040805190520F481E090E0B7
:1014A000A0E0B0E0BA01A901480F591F6A1F7B1FD5
:1014B000AA0CBB1CCC1CDD1C97FE08C081E090E090
:1014C000A0E0B0E0A82AB92ACA2ADB2A3196E03285
:1014D000F10549F0660C771C881C991C56944794BA
:1014E00037942794C3CFFA85EA892B893C898B8569
:1014F0009C85280F391F2E5F3F4F17C0CA0181708E
:101500009070892B61F016950795F794E79480E029
:1015100090E0A0E0B0E8E82AF92A0A2B1B2B769588
:101520006795579547952F5F3F4F77FDE7CF0CC0E5
:10153000440F551F661F771F17FD4160EE0CFF1CFF
:10154000001F111F21503040403090E0590790E0BB
:10155000690790E4790760F32B8F3C8FDB01CA01A8
:101560008F779070A070B07080349105A105B1059F
:1015700061F447FD0AC0E114F1040105110529F0E9
:10158000405C5F4F6F4F7F4F40781A8EFE1711F00F
:1015900081E08A8F4D8F5E8F6F8F78A383E0898F74
:1015A000CE0149960E94BC0BA096E2E10C947E0D00
:1015B000A8E1B0E0EEEDFAE00C946E0D69837A8359
:1015C0008B839C832D833E834F83588789E0E82E4D
:1015D000F12CEC0EFD1ECE010196B7010E94910C7C
:1015E0008E010F5E1F4FCE010596B8010E94910C2F
:1015F0008985823040F08989823028F0C701B8019E
:101600000E94090D01C08FEF6896E6E00C948A0DE8
:10161000A8E1B0E0EEE0FBE00C946E0D69837A8304
:101620008B839C832D833E834F83588789E0E82EEC
:10163000F12CEC0EFD1ECE010196B7010E94910C1B
:101640008E010F5E1F4FCE010596B8010E94910CCE
:101650008985823040F08989823028F0C701B8013D
:101660000E94090D01C08FEF6896E6E00C948A0D88
:10167000A8E1B0E0EEE3FBE00C946E0D69837A83A1
:101680008B839C832D833E834F83588789E0E82E8C
:10169000F12CEC0EFD1ECE010196B7010E94910CBB
:1016A0008E010F5E1F4FCE010596B8010E94910C6E
:1016B0008985823040F08989823028F0C701B801DD
:1016C0000E94090D01C081E06896E6E00C948A0D45
:1016D000ACE0B0E0EEE6FBE00C94720D69837A8337
:1016E0008B839C83CE010196BE016B5F7F4F0E946E
:1016F000910C8D81823061F1823050F1843021F47F
:101700008E81882351F12EC02F81388537FD20C06E
:101710006E812F3131051CF06623F9F023C08EE174
:1017200090E0821B930B29853A854B855C8504C02C
:1017300056954795379527958A95D2F76623B1F048
:1017400050954095309521953F4F4F4F5F4F0EC0BC
:1017500020E030E040E050E009C02FEF3FEF4FEFD6
:101760005FE704C020E030E040E050E8B901CA0182
:101770002C96E2E00C948E0DDF92EF92FF920F9385
:101780001F93FC01E480F58006811781D180808160
:10179000823048F480E090E0A0E1B0E0E82AF92A45
:1017A0000A2B1B2BA5C0843009F49FC0823021F482
:1017B000EE24FF24870105C0E114F10401051105A1
:1017C00019F4E0E0F0E096C0628173819FEF623827
:1017D00079070CF05BC022E83FEF261B370B2A315C
:1017E00031052CF020E030E040E050E02AC0B801A4
:1017F000A701022E04C076956795579547950A94E0
:10180000D2F781E090E0A0E0B0E004C0880F991F1B
:10181000AA1FBB1F2A95D2F70197A109B1098E21F2
:101820009F21A023B1230097A105B10521F081E0FC
:1018300090E0A0E0B0E09A01AB01282B392B4A2BB5
:101840005B2BDA01C9018F779070A070B070803483
:101850009105A105B10539F427FF09C0205C3F4F70
:101860004F4F5F4F04C0215C3F4F4F4F5F4FE0E051
:10187000F0E02030A0E03A07A0E04A07A0E45A07D1
:1018800010F0E1E0F0E079018A0127C060387105CD
:1018900064F5FB01E158FF4FD801C7018F779070C5
:1018A000A070B07080349105A105B10539F4E7FE50
:1018B0000DC080E490E0A0E0B0E004C08FE390E0D1
:1018C000A0E0B0E0E80EF91E0A1F1B1F17FF05C0BD
:1018D00016950795F794E794319687E01695079546
:1018E000F794E7948A95D1F705C0EE24FF24870189
:1018F000EFEFF0E06E2F679566276795902F9F7743
:10190000D794DD24D7948E2F8695492F462B582FB8
:101910005D29B701CA011F910F91FF90EF90DF90F1
:101920000895FC01DB01408151812281622F6F7794
:1019300070E0221F2227221F9381892F880F822B7C
:10194000282F30E0991F9927991F11969C93119782
:1019500021153105A9F5411551056105710511F4F0
:1019600082E037C082E89FEF13969C938E93129784
:101970009A01AB0167E0220F331F441F551F6A9580
:10198000D1F783E08C930DC0220F331F441F551FE6
:1019900012968D919C911397019713969C938E9319
:1019A0001297203080E0380780E0480780E458072D
:1019B00058F314962D933D934D935C931797089588
:1019C0002F3F310579F4411551056105710519F471
:1019D00084E08C93089564FF03C081E08C9312C06F
:1019E0001C9210C02F57304013963C932E931297A1
:1019F00083E08C9387E0440F551F661F771F8A95FD
:101A0000D1F7706414964D935D936D937C93179703
:101A100008951F93DC01FB019C91923008F447C0AC
:101A20008081823008F443C0943051F411961C91A7
:101A3000843099F58181682F70E0611B71093FC086
:101A4000843021F0923031F48230B9F181818823E1
:101A500089F12DC011961C9111978230F1F081818E
:101A60001817D9F412962D913C9113978281938186
:101A70008217930794F028173907BCF014968D91BC
:101A80009D910D90BC91A02D248135814681578177
:101A9000281739074A075B0718F4112341F00AC0D9
:101AA00082179307A407B50740F4112319F061E0EA
:101AB00070E005C06FEF7FEF02C060E070E0CB0127
:101AC0001F9108952F923F924F925F926F927F9253
:101AD0008F929F92AF92BF92CF92DF92EF92FF923E
:101AE0000F931F93CF93DF93CDB7DEB7CA1BDB0BEA
:101AF0000FB6F894DEBF0FBECDBF09942A8839888F
:101B000048885F846E847D848C849B84AA84B98495
:101B1000C884DF80EE80FD800C811B81AA81B981A1
:101B2000CE0FD11D0FB6F894DEBF0FBECDBFED01B5
:061B30000895F894FFCFB8
:101B360005000100410000A0D500000000000000E3
:021B460000009D
:00000001FF
