:100000000C942A000C9447000C9447000C94470071
:100010000C9447000C9447000C9447000C94470044
:100020000C9447000C9447000C9447000C94470034
:100030000C9447000C9447000C9447000C94470024
:100040000C9447000C9447000C9447000C94470014
:100050000C94470011241FBECFE5D4E0DEBFCDBF16
:1000600010E0A0E6B0E0EAE1F5E202C005900D92F2
:10007000AE3FB107D9F711E0AEEFB0E001C01D927D
:10008000A030B107E1F70E9449000C948B120C9448
:100090000000DF93CF93CDB7DEB70E9445060E94E4
:1000A00054000E948801FDCFDF93CF93CDB7DEB718
:1000B000A8970FB6F894DEBF0FBECDBF0E94FF0B0E
:1000C00080E690E00E94650B81E060E00E94810B79
:1000D000CE014D960E9463050E94FF0B8EE690E0D4
:1000E0000E94650B81E060E00E94810BCE01839647
:1000F0000E9463050E94FF0BCE014D969E012D5D6F
:100100003F4FB9010E941006882309F079C08FE79C
:1001100090E00E94650B80E090E0AAE7B4E4898F4C
:100120009A8FAB8FBC8F698D7A8D8B8D9C8D20E0E3
:1001300030E04AEF54E40E948B0EDC01CB018D8B42
:100140009E8BAF8BB88F6D897E898F89988D20E0CB
:1001500030E040E85FE30E94E50F88232CF481E063
:1001600090E09C8B8B8B3FC06D897E898F89988DA9
:1001700020E03FEF4FE757E40E94850F18164CF53B
:10018000698D7A8D8B8D9C8D20E030E040E251E4CA
:100190000E948B0EDC01CB01BC01CD010E94B50C8D
:1001A000DC01CB019C8B8B8B0FC088EC90E09A8B91
:1001B000898B89899A890197F1F79A8B898B8B8929
:1001C0009C8901979C8B8B8B8B899C89009769F705
:1001D00014C06D897E898F89988D0E94B50CDC01D1
:1001E000CB019C8B8B8B8B899C89988B8F878F8580
:1001F00098890197F1F7988B8F870E9454007FC0F0
:100200008BE890E00E94650B80E090E0AAE7B4E400
:100210008B879C87AD87BE876B857C858D859E850A
:1002200020E030E04AEF54E40E948B0EDC01CB0169
:100230008F839887A987BA876F81788589859A8502
:1002400020E030E040E85FE30E94E50F88232CF4D3
:1002500081E090E09E838D833FC06F8178858985A2
:100260009A8520E03FEF4FE757E40E94850F18166C
:100270004CF56B857C858D859E8520E030E040E2E5
:1002800051E40E948B0EDC01CB01BC01CD010E9428
:10029000B50CDC01CB019E838D830FC088EC90E010
:1002A0009C838B838B819C810197F1F79C838B834B
:1002B0008D819E8101979E838D838D819E81009784
:1002C00069F714C06F81788589859A850E94B50C7D
:1002D000DC01CB019E838D838D819E819A838983EE
:1002E00089819A810197F1F79A8389830E94FF0B94
:1002F0008EE10E94230CCE014D960E94C404A89664
:100300000FB6F894DEBF0FBECDBFCF91DF91089539
:10031000DF93CF93CDB7DEB76C970FB6F894DEBFFF
:100320000FBECDBF0E94FF0B85E990E00E94650BD8
:1003300081E060E00E94810B82EA90E00E94650B00
:100340000E9454068D3221F00E9454068B32C1F770
:100350000E9454068B3209F075C080E090E0A8EC52
:10036000B3E4898F9A8FAB8FBC8F698D7A8D8B8D1B
:100370009C8D20E030E04AEF54E40E948B0EDC01BB
:10038000CB018D8B9E8BAF8BB88F6D897E898F89CA
:10039000988D20E030E040E85FE30E94E50F88237D
:1003A0002CF481E090E09C8B8B8B3FC06D897E8923
:1003B0008F89988D20E03FEF4FE757E40E94850F2B
:1003C00018164CF5698D7A8D8B8D9C8D20E030E070
:1003D00040E251E40E948B0EDC01CB01BC01CD0157
:1003E0000E94B50CDC01CB019C8B8B8B0FC088EC81
:1003F00090E09A8B898B89899A890197F1F79A8B7A
:10040000898B8B899C8901979C8B8B8B8B899C8991
:10041000009769F714C06D897E898F89988D0E9435
:10042000B50CDC01CB019C8B8B8B8B899C89988BC9
:100430008F878F8598890197F1F7988B8F870E9416
:10044000A40279C00E9454068D3209F074C080E085
:1004500090E0A8ECB3E48B879C87AD87BE876B8563
:100460007C858D859E8520E030E04AEF54E40E9433
:100470008B0EDC01CB018F839887A987BA876F81A8
:10048000788589859A8520E030E040E85FE30E9426
:10049000E50F88232CF481E090E09E838D833FC09C
:1004A0006F81788589859A8520E03FEF4FE757E493
:1004B0000E94850F18164CF56B857C858D859E8571
:1004C00020E030E040E251E40E948B0EDC01CB01E1
:1004D000BC01CD010E94B50CDC01CB019E838D8354
:1004E0000FC088EC90E09C838B838B819C8101976B
:1004F000F1F79C838B838D819E8101979E838D83F1
:100500008D819E81009769F714C06F8178858985F8
:100510009A850E94B50CDC01CB019E838D838D8171
:100520009E819A83898389819A810197F1F79A83C1
:1005300089830E9483036C960FB6F894DEBF0FBECA
:10054000CDBFCF91DF910895DF93CF93CDB7DEB7C5
:1005500064970FB6F894DEBF0FBECDBF8091FE004A
:100560008F5F8093FE008091FE00843089F40E94AA
:10057000FF0B82E30E94230C82EB90E00E94650B4C
:100580000E943A0C8C33E1F71092FE000E94880121
:100590000E94FF0B88EB90E00E94650B81E060E019
:1005A0000E94810BCE010F960E9463058AE00E9493
:1005B000230CCE010F960E94C40488E20E94230CF3
:1005C0000E943A0C8130E1F484E10E94230C0E94E5
:1005D000FF0B87EC90E00E94650B0E943A0C86347A
:1005E000E1F70E94FF0B84ED90E00E94650B0E94F2
:1005F0003A0C8035E1F71092FE000E9488017AC023
:100600000E94FF0B81EE90E00E94650B80E090E07D
:10061000AAEFB3E48B879C87AD87BE876B857C850B
:100620008D859E8520E030E04AEF54E40E948B0ED9
:10063000DC01CB018F839887A987BA876F81788582
:1006400089859A8520E030E040E85FE30E94E50F6D
:1006500088232CF481E090E09E838D833FC06F81DE
:10066000788589859A8520E03FEF4FE757E40E941F
:10067000850F18164CF56B857C858D859E8520E051
:1006800030E040E251E40E948B0EDC01CB01BC0162
:10069000CD010E94B50CDC01CB019E838D830FC080
:1006A00088EC90E09C838B838B819C810197F1F790
:1006B0009C838B838D819E8101979E838D838D8109
:1006C0009E81009769F714C06F81788589859A8526
:1006D0000E94B50CDC01CB019E838D838D819E81B0
:1006E0009A83898389819A810197F1F79A83898313
:1006F0000E94A40264960FB6F894DEBF0FBECDBF71
:10070000CF91DF910895DF93CF93CDB7DEB7A89750
:100710000FB6F894DEBF0FBECDBF8091FF008F5F94
:100720008093FF008091FF00843089F40E94FF0BCA
:1007300082E30E94230C82EB90E00E94650B0E94F2
:100740003A0C8C33E1F71092FF000E9488010E945E
:10075000FF0B88EB90E00E94650B81E060E00E9457
:10076000810BCE014D960E9463058AE00E94230C06
:10077000CE014D960E94C40488E20E94230C0E9480
:100780003A0C813009F07DC00E9454000E94FF0B9A
:1007900080EF90E00E94650B80E090E0AAEFB3E468
:1007A000898F9A8FAB8FBC8F698D7A8D8B8D9C8D45
:1007B00020E030E04AEF54E40E948B0EDC01CB01D4
:1007C0008D8B9E8BAF8BB88F6D897E898F89988D2D
:1007D00020E030E040E85FE30E94E50F88232CF43E
:1007E00081E090E09C8B8B8B3FC06D897E898F89E7
:1007F000988D20E03FEF4FE757E40E94850F1816D1
:100800004CF5698D7A8D8B8D9C8D20E030E040E237
:1008100051E40E948B0EDC01CB01BC01CD010E9492
:10082000B50CDC01CB019C8B8B8B0FC088EC90E06E
:100830009A8B898B89899A890197F1F79A8B898B91
:100840008B899C8901979C8B8B8B8B899C890097CA
:1008500069F714C06D897E898F89988D0E94B50CC7
:10086000DC01CB019C8B8B8B8B899C89988B8F8730
:100870008F8598890197F1F7988B8F870E9488015F
:100880007AC00E94FF0B81EE90E00E94650B80E031
:1008900090E0AAEFB3E48B879C87AD87BE876B851A
:1008A0007C858D859E8520E030E04AEF54E40E94EF
:1008B0008B0EDC01CB018F839887A987BA876F8164
:1008C000788589859A8520E030E040E85FE30E94E2
:1008D000E50F88232CF481E090E09E838D833FC058
:1008E0006F81788589859A8520E03FEF4FE757E44F
:1008F0000E94850F18164CF56B857C858D859E852D
:1009000020E030E040E251E40E948B0EDC01CB019C
:10091000BC01CD010E94B50CDC01CB019E838D830F
:100920000FC088EC90E09C838B838B819C81019726
:10093000F1F79C838B838D819E8101979E838D83AC
:100940008D819E81009769F714C06F8178858985B4
:100950009A850E94B50CDC01CB019E838D838D812D
:100960009E819A83898389819A810197F1F79A837D
:1009700089830E948303A8960FB6F894DEBF0FBE4A
:10098000CDBFCF91DF910895DF93CF93CDB7DEB781
:1009900061970FB6F894DEBF0FBECDBF998B888BE1
:1009A0000E943A0C8832E1F71F8680C08F85282F7D
:1009B00030E088899989FC01E20FF31F80810E9451
:1009C000230C80E090E0A0EAB1E48B879C87AD87A0
:1009D000BE876B857C858D859E8520E030E04AEF63
:1009E00054E40E948B0EDC01CB018F839887A9878A
:1009F000BA876F81788589859A8520E030E040E864
:100A00005FE30E94E50F88232CF481E090E09E8351
:100A10008D833FC06F81788589859A8520E03FEF7F
:100A20004FE757E40E94850F18164CF56B857C85BF
:100A30008D859E8520E030E040E251E40E948B0EDF
:100A4000DC01CB01BC01CD010E94B50CDC01CB0166
:100A50009E838D830FC088EC90E09C838B838B8179
:100A60009C810197F1F79C838B838D819E810197F7
:100A70009E838D838D819E81009769F714C06F815D
:100A8000788589859A850E94B50CDC01CB019E830F
:100A90008D838D819E819A83898389819A81019733
:100AA000F1F79A8389838F858F5F8F878F85863053
:100AB00008F47CCF61960FB6F894DEBF0FBECDBFB1
:100AC000CF91DF9108950F931F93DF93CF93CDB70D
:100AD000DEB761970FB6F894DEBF0FBECDBF998B1E
:100AE000888B1F868EC08F85282F30E08889998952
:100AF0008C01020F131F0E945406F80180838F851A
:100B0000282F30E088899989FC01E20FF31F80814A
:100B1000882F90E00E94DC0B80E090E0A8ECB3E42A
:100B20008B879C87AD87BE876B857C858D859E85F1
:100B300020E030E04AEF54E40E948B0EDC01CB0150
:100B40008F839887A987BA876F81788589859A85E9
:100B500020E030E040E85FE30E94E50F88232CF4BA
:100B600081E090E09E838D833FC06F817885898589
:100B70009A8520E03FEF4FE757E40E94850F181653
:100B80004CF56B857C858D859E8520E030E040E2CC
:100B900051E40E948B0EDC01CB01BC01CD010E940F
:100BA000B50CDC01CB019E838D830FC088EC90E0F7
:100BB0009C838B838B819C810197F1F79C838B8332
:100BC0008D819E8101979E838D838D819E8100976B
:100BD00069F714C06F81788589859A850E94B50C64
:100BE000DC01CB019E838D838D819E819A838983D5
:100BF00089819A810197F1F79A8389838F858F5F25
:100C00008F878F85863008F46ECF61960FB6F89483
:100C1000DEBF0FBECDBFCF91DF911F910F91089521
:100C2000DF93CF9300D000D000D0CDB7DEB79B8349
:100C30008A837D836C83198219C08981282F30E0D3
:100C40008A819B81FC01E20FF31F40818981282F5B
:100C500030E08C819D81FC01E20FF31F80814817F9
:100C600011F01E8208C089818F5F89838981863057
:100C700020F381E08E838E8126960FB6F894DEBF36
:100C80000FBECDBFCF91DF910895DF93CF93CDB746
:100C9000DEB70E94090C0E9452070E943A0C88326B
:100CA000E1F7CF91DF910895DF93CF9300D0CDB7D7
:100CB000DEB71A824CC0EAE3F0E08A81282F30E0E8
:100CC00080E190E002C0880F991F2A95E2F78083A7
:100CD000EBE3F0E08A81282F30E080E190E0022E03
:100CE00002C0880F991F0A94E2F7809580831982C9
:100CF00028C0E9E3F0E08081282F30E08981882F47
:100D000090E0A90102C0559547958A95E2F7CA017E
:100D100081709070009791F48981882F90E0880FFE
:100D2000991F880F991F982F8A81890F8F5F0E94C2
:100D3000AC060F900F90CF91DF91089589818F5F5E
:100D4000898389818430A8F28A818F5F8A838A812E
:100D5000843008F4B0CFADCFDF93CF9300D000D074
:100D6000CDB7DEB789838981282F30E03C832B8380
:100D70008B819C818830910509F470C02B813C8166
:100D8000293031055CF58B819C818430910509F413
:100D900059C02B813C81253031059CF48B819C818D
:100DA0008230910509F448C02B813C812330310504
:100DB0000CF045C08B819C818130910509F439C0CC
:100DC00067C02B813C812630310509F441C08B81FD
:100DD0009C81873091050CF03EC037C02B813C814F
:100DE0002C30310509F446C08B819C818D309105F2
:100DF0005CF42B813C812A303105B1F18B819C81DF
:100E00008B309105A4F52DC02B813C812E3031050E
:100E1000B9F18B819C818E3091057CF12B813C81D5
:100E20002F30310579F18B819C818031910569F1F9
:100E30002FC097E09A832EC028E02A832BC039E088
:100E40003A8328C085E28A8325C094E09A8322C031
:100E500025E02A831FC036E03A831CC08AE28A83D9
:100E600019C091E09A8316C022E02A8313C033E0B0
:100E70003A8310C08DE28A830DC09DE09A830AC038
:100E80001A8208C02DE32A8305C03BE23A8302C0E0
:100E900089818A838A810F900F900F900F90CF9154
:100EA000DF910895DF93CF93CDB7DEB7A1E3B0E034
:100EB000E1E3F0E0808180678C93E4E3F0E08FEF82
:100EC000808388E30E946D078CE00E946D0781E0BB
:100ED0000E946D07CF91DF910895DF93CF93CDB737
:100EE000DEB7E9970FB6F894DEBF0FBECDBF89AF6E
:100EF000A2E3B0E0E2E3F0E080818F7E8C93A2E396
:100F0000B0E0E2E3F0E080818F7D8C9380E090E0C0
:100F1000A0E8BFE38DAB9EABAFABB8AF6DA97EA928
:100F20008FA998AD20E030E04AEF54E40E948B0E88
:100F3000DC01CB0189AB9AABABABBCAB69A97AA99D
:100F40008BA99CA920E030E040E85FE30E94E50F18
:100F500088232CF481E090E098AB8FA73FC069A96B
:100F60007AA98BA99CA920E03FEF4FE757E40E94A4
:100F7000850F18164CF56DA97EA98FA998AD20E0B4
:100F800030E040E251E40E948B0EDC01CB01BC0159
:100F9000CD010E94B50CDC01CB0198AB8FA70FC02F
:100FA00088EC90E09EA78DA78DA59EA50197F1F7EF
:100FB0009EA78DA78FA598A9019798AB8FA78FA5FE
:100FC00098A9009769F714C069A97AA98BA99CA967
:100FD0000E94B50CDC01CB0198AB8FA78FA598A917
:100FE0009CA78BA78BA59CA50197F1F79CA78BA726
:100FF000A2E3B0E0E2E3F0E0808180648C9380E0E3
:1010000090E0A0E8BFE38FA398A7A9A7BAA76FA114
:1010100078A589A59AA520E030E04AEF54E40E9423
:101020008B0EDC01CB018BA39CA3ADA3BEA36BA154
:101030007CA18DA19EA120E030E040E85FE30E940A
:10104000E50F88232CF481E090E09AA389A33FC0A8
:101050006BA17CA18DA19EA120E03FEF4FE757E45B
:101060000E94850F18164CF56FA178A589A59AA541
:1010700020E030E040E251E40E948B0EDC01CB0125
:10108000BC01CD010E94B50CDC01CB019AA389A360
:101090000FC088EC90E098A38F8F8F8D98A1019757
:1010A000F1F798A38F8F89A19AA101979AA389A399
:1010B00089A19AA1009769F714C06BA17CA18DA1A9
:1010C0009EA10E94B50CDC01CB019AA389A389A142
:1010D0009AA19E8F8D8F8D8D9E8D0197F1F79E8F9A
:1010E0008D8FE5E3F0E089AD808380E090E0A0E8BB
:1010F000BFE3898F9A8FAB8FBC8F698D7A8D8B8D73
:101100009C8D20E030E04AEF54E40E948B0EDC011D
:10111000CB018D8B9E8BAF8BB88F6D897E898F892C
:10112000988D20E030E040E85FE30E94E50F8823DF
:101130002CF481E090E09C8B8B8B3FC06D897E8985
:101140008F89988D20E03FEF4FE757E40E94850F8D
:1011500018164CF5698D7A8D8B8D9C8D20E030E0D2
:1011600040E251E40E948B0EDC01CB01BC01CD01B9
:101170000E94B50CDC01CB019C8B8B8B0FC088ECE3
:1011800090E09A8B898B89899A890197F1F79A8BDC
:10119000898B8B899C8901979C8B8B8B8B899C89F4
:1011A000009769F714C06D897E898F89988D0E9498
:1011B000B50CDC01CB019C8B8B8B8B899C89988B2C
:1011C0008F878F8598890197F1F7988B8F87A2E396
:1011D000B0E0E2E3F0E080818F7B8C9380E090E0F0
:1011E000A0E8BFE38B879C87AD87BE876B857C8536
:1011F0008D859E8520E030E04AEF54E40E948B0EFE
:10120000DC01CB018F839887A987BA876F817885A6
:1012100089859A8520E030E040E85FE30E94E50F91
:1012200088232CF481E090E09E838D833FC06F8102
:10123000788589859A8520E03FEF4FE757E40E9443
:10124000850F18164CF56B857C858D859E8520E075
:1012500030E040E251E40E948B0EDC01CB01BC0186
:10126000CD010E94B50CDC01CB019E838D830FC0A4
:1012700088EC90E09C838B838B819C810197F1F7B4
:101280009C838B838D819E8101979E838D838D812D
:101290009E81009769F714C06F81788589859A854A
:1012A0000E94B50CDC01CB019E838D838D819E81D4
:1012B0009A83898389819A810197F1F79A83898337
:1012C000E9960FB6F894DEBF0FBECDBFCF91DF9188
:1012D0000895DF93CF93CDB7DEB7E9970FB6F894B3
:1012E000DEBF0FBECDBF89AFA2E3B0E0E2E3F0E026
:1012F000808180618C93A2E3B0E0E2E3F0E0808142
:101300008F7D8C9380E090E0A0E8BFE38DAB9EAB37
:10131000AFABB8AF6DA97EA98FA998AD20E030E042
:101320004AEF54E40E948B0EDC01CB0189AB9AABEF
:10133000ABABBCAB69A97AA98BA99CA920E030E032
:1013400040E85FE30E94E50F88232CF481E090E001
:1013500098AB8FA73FC069A97AA98BA99CA920E067
:101360003FEF4FE757E40E94850F18164CF56DA923
:101370007EA98FA998AD20E030E040E251E40E94C0
:101380008B0EDC01CB01BC01CD010E94B50CDC0150
:10139000CB0198AB8FA70FC088EC90E09EA78DA7DC
:1013A0008DA59EA50197F1F79EA78DA78FA598A95A
:1013B000019798AB8FA78FA598A9009769F714C0DC
:1013C00069A97AA98BA99CA90E94B50CDC01CB0163
:1013D00098AB8FA78FA598A99CA78BA78BA59CA539
:1013E0000197F1F79CA78BA7A2E3B0E0E2E3F0E05E
:1013F000808180648C9380E090E0A0E8BFE38FA3BD
:1014000098A7A9A7BAA76FA178A589A59AA520E052
:1014100030E04AEF54E40E948B0EDC01CB018BA339
:101420009CA3ADA3BEA36BA17CA18DA19EA120E036
:1014300030E040E85FE30E94E50F88232CF481E070
:1014400090E09AA389A33FC06BA17CA18DA19EA12E
:1014500020E03FEF4FE757E40E94850F18164CF548
:101460006FA178A589A59AA520E030E040E251E47B
:101470000E948B0EDC01CB01BC01CD010E94B50C9A
:10148000DC01CB019AA389A30FC088EC90E098A35C
:101490008F8F8F8D98A10197F1F798A38F8F89A1D6
:1014A0009AA101979AA389A389A19AA1009769F7A4
:1014B00014C06BA17CA18DA19EA10E94B50CDC0182
:1014C000CB019AA389A389A19AA19E8F8D8F8D8D1F
:1014D0009E8D0197F1F79E8F8D8FE5E3F0E089AD4A
:1014E000808380E090E0A0E8BFE3898F9A8FAB8F84
:1014F000BC8F698D7A8D8B8D9C8D20E030E04AEF1A
:1015000054E40E948B0EDC01CB018D8B9E8BAF8B44
:10151000B88F6D897E898F89988D20E030E040E812
:101520005FE30E94E50F88232CF481E090E09C8B20
:101530008B8B3FC06D897E898F89988D20E03FEF2E
:101540004FE757E40E94850F18164CF5698D7A8D88
:101550008B8D9C8D20E030E040E251E40E948B0EA8
:10156000DC01CB01BC01CD010E94B50CDC01CB013B
:101570009C8B8B8B0FC088EC90E09A8B898B898930
:101580009A890197F1F79A8B898B8B899C890197AE
:101590009C8B8B8B8B899C89009769F714C06D8914
:1015A0007E898F89988D0E94B50CDC01CB019C8BC4
:1015B0008B8B8B899C89988B8F878F8598890197D6
:1015C000F1F7988B8F87A2E3B0E0E2E3F0E080814F
:1015D0008F7B8C9380E090E0A0E8BFE38B879C87B3
:1015E000AD87BE876B857C858D859E8520E030E04C
:1015F0004AEF54E40E948B0EDC01CB018F83988765
:10160000A987BA876F81788589859A8520E030E03F
:1016100040E85FE30E94E50F88232CF481E090E02E
:101620009E838D833FC06F81788589859A8520E070
:101630003FEF4FE757E40E94850F18164CF56B8576
:101640007C858D859E8520E030E040E251E40E945B
:101650008B0EDC01CB01BC01CD010E94B50CDC017D
:10166000CB019E838D830FC088EC90E09C838B839D
:101670008B819C810197F1F79C838B838D819E8167
:1016800001979E838D838D819E81009769F714C099
:101690006F81788589859A850E94B50CDC01CB0124
:1016A0009E838D838D819E819A83898389819A818E
:1016B0000197F1F79A838983E9960FB6F894DEBF14
:1016C0000FBECDBFCF91DF910895DF93CF9300D0B0
:1016D000CDB7DEB79A8389830AC0E981FA81808118
:1016E0000E94690989819A8101969A838983E98197
:1016F000FA818081882389F70F900F90CF91DF9135
:101700000895DF93CF9300D000D00F92CDB7DEB70E
:101710008A836B838A81282F30E03D832C838C81E0
:101720009D8181309105C1F02C813D8122303105B0
:101730002CF48C819D81009761F019C02C813D8132
:101740002230310569F08C819D818330910561F0F3
:101750000EC08B8189830BC08B81805C898307C01D
:101760008B81805F898303C08B81805B89838981C2
:1017700080680E946D070F900F900F900F900F9050
:10178000CF91DF910895DF93CF9300D000D0CDB7F4
:10179000DEB789836A835C834B8389816A810E9477
:1017A000810B8B819C810E94650B0F900F900F9095
:1017B0000F90CF91DF910895DF93CF93CDB7DEB730
:1017C00062970FB6F894DEBF0FBECDBF9A8B898BA0
:1017D00089899A899E012F5F3F4FB9014AE050E005
:1017E0000E944612CE0101960E94650B62960FB6CA
:1017F000F894DEBF0FBECDBFCF91DF910895DF9388
:10180000CF93CDB7DEB781E00E946D07CF91DF9116
:101810000895DF93CF93CDB7DEB7EBE2F0E082E03F
:101820008083EAE2F0E088E18083E0E4F0E086E8AB
:101830008083E0E4F0E01082E9E2F0E087E6808374
:10184000CF91DF910895DF93CF930F92CDB7DEB79D
:101850008983EBE2F0E08081882F90E080729070C5
:101860000097B9F3ECE2F0E0898180830F90CF918B
:10187000DF910895DF93CF93CDB7DEB7EBE2F0E0D1
:1018800080818823DCF7ECE2F0E08081CF91DF916A
:101890000895DF93CF9300D00F92CDB7DEB79B832F
:1018A0008A8319820EC08981282F30E08A819B812A
:1018B000FC01E20FF31F80810E94230C89818F5F5E
:1018C00089838981282F30E08A819B81FC01E20F86
:1018D000F31F8081882339F70F900F900F90CF91DD
:1018E000DF9108950F931F93DF93CF9300D00F9252
:1018F000CDB7DEB79B838A8319828981282F30E098
:101900008A819B818C01020F131F0E943A0CF801FF
:1019100080830FC089818F5F89838981282F30E080
:101920008A819B818C01020F131F0E943A0CF801DF
:1019300080838981282F30E08A819B81FC01E20F1E
:10194000F31F8081833231F78981282F30E08A812B
:101950009B81FC01E20FF31F10820F900F900F90FC
:10196000CF91DF911F910F910895EF92FF920F9306
:101970001F937B018C0120E030E040E05FE40E9497
:10198000B50F88238CF0C801B70120E030E040E0BB
:101990005FE40E942D0E0E9415109B01AC012050A7
:1019A00030404040504806C0C801B7010E941510A1
:1019B0009B01AC01B901CA011F910F91FF90EF90FB
:1019C0000895A0E0B0E0E7EEFCE00C940F12DC011B
:1019D0002B01FA019C91923008F439C1EB01888106
:1019E000823008F433C1943069F4843009F02FC197
:1019F00011969C9111978981981709F428C1A5EF38
:101A0000B0E025C1843009F421C18230A9F49230BC
:101A100009F01DC19A01AD0188E0EA010990AE010B
:101A2000E90109929E018150C1F7E2018981119675
:101A30009C918923818308C1923009F407C11296D1
:101A40002D903C901397EB018A819B811496AD9069
:101A5000BD90CD90DC901797EC80FD800E811F81AA
:101A60009101281B390BB90137FF04C0662777277E
:101A7000621B730B603271050CF061C01216130605
:101A80006CF537014801062E04C09694879477942C
:101A900067940A94D2F721E030E040E050E004C0BF
:101AA000220F331F441F551F6A95D2F72150304033
:101AB000404050402E213F21402351232115310524
:101AC0004105510521F021E030E040E050E079018E
:101AD0008A01E628F728082919293CC0232BD1F1CF
:101AE000260E371E35014601062E04C096948794B3
:101AF000779467940A94D2F721E030E040E050E018
:101B000004C0220F331F441F551F6A95D2F721507E
:101B10003040404050402A213B214C215D2121157D
:101B200031054105510521F021E030E040E050E071
:101B300059016A01A628B728C828D9280BC08215E0
:101B400093052CF01C01AA24BB24650103C0EE24DC
:101B5000FF24870111969C91D20111968C919817C0
:101B600009F445C0992339F0A80197012A193B09C6
:101B70004C095D0906C0A60195012E193F09400BCD
:101B8000510B57FD08C01182338222822483358392
:101B9000468357831DC081E0818333822282882758
:101BA0009927DC01821B930BA40BB50B84839583CF
:101BB000A683B7830DC0220F331F441F551F2483F4
:101BC00035834683578382819381019793838283F0
:101BD0002481358146815781DA01C9010197A10924
:101BE000B1098F5F9F4FAF4FBF4328F30BC0918365
:101BF00033822282EA0CFB1C0C1D1D1DE482F5823F
:101C00000683178383E08083248135814681578151
:101C100057FF1AC0C901AA2797FDA095BA2F817056
:101C20009070A070B0705695479537952795822B88
:101C3000932BA42BB52B84839583A683B7838281B2
:101C40009381019693838283DF0101C0D201CD018C
:101C5000CDB7DEB7E2E10C942B12A0E2B0E0E3E3F3
:101C6000FEE00C941B1269837A838B839C832D8303
:101C70003E834F835887E9E0EE2EF12CEC0EFD1EDB
:101C8000CE010196B7010E943E118E010F5E1F4FDB
:101C9000CE010596B8010E943E118A8991E08927FC
:101CA0008A8BC701B801AE01475E5F4F0E94E10C0D
:101CB0000E946910A096E6E00C943712A0E2B0E012
:101CC000E4E6FEE00C941B1269837A838B839C8389
:101CD0002D833E834F835887F9E0EF2EF12CEC0ED5
:101CE000FD1ECE010196B7010E943E118E010F5ECE
:101CF0001F4FCE010596B8010E943E11C701B801E1
:101D0000AE01475E5F4F0E94E10C0E946910A096F1
:101D1000E6E00C943712A0E2B0E0E1E9FEE00C94BA
:101D20000F1269837A838B839C832D833E834F8339
:101D30005887CE010196BE01675F7F4F0E943E111A
:101D4000CE010596BE016F5E7F4F0E943E119985C0
:101D5000923088F089898230C8F0943019F482304A
:101D600051F404C0843029F4923081F485EF90E07E
:101D7000C6C0923049F420E09A858A89981321E000
:101D80002A87CE010996BBC0823049F420E09A85AB
:101D90008A89981321E02A8BCE014196B0C02D8408
:101DA0003E844F8458886D887E888F88988CEE2476
:101DB000FF248701AA24BB24650140E050E060E0D5
:101DC00070E0E0E0F0E0C10181709070892BE9F0F3
:101DD000E60CF71C081D191D9A01AB012A0D3B1DCD
:101DE0004C1D5D1D80E090E0A0E0B0E0E614F7043B
:101DF0000805190520F481E090E0A0E0B0E0BA0108
:101E0000A901480F591F6A1F7B1FAA0CBB1CCC1CC1
:101E1000DD1C97FE08C081E090E0A0E0B0E0A82AB9
:101E2000B92ACA2ADB2A3196E032F10549F0660C5C
:101E3000771C881C991C5694479437942794C3CFD9
:101E4000FA85EA892B893C898B859C85280F391F67
:101E50002E5F3F4F17C0CA0181709070892B61F0CF
:101E600016950795F794E79480E090E0A0E0B0E83D
:101E7000E82AF92A0A2B1B2B7695679557954795E3
:101E80002F5F3F4F77FDE7CF0CC0440F551F661FF4
:101E9000771F17FD4160EE0CFF1C001F111F215022
:101EA0003040403090E0590790E0690790E47907AE
:101EB00060F32B8F3C8FDB01CA018F779070A0708D
:101EC000B07080349105A105B10561F447FD0AC0E9
:101ED000E114F1040105110529F0405C5F4F6F4FDB
:101EE0007F4F40781A8EFE1711F081E08A8F4D8F58
:101EF0005E8F6F8F78A383E0898FCE0149960E9411
:101F00006910A096E2E10C942B12A8E1B0E0EBE896
:101F1000FFE00C941B1269837A838B839C832D834F
:101F20003E834F83588789E0E82EF12CEC0EFD1E8E
:101F3000CE010196B7010E943E118E010F5E1F4F28
:101F4000CE010596B8010E943E118985823040F08D
:101F50008989823028F0C701B8010E94B61101C0FA
:101F60008FEF6896E6E00C943712A8E1B0E0EBEB57
:101F7000FFE00C941B1269837A838B839C832D83EF
:101F80003E834F83588789E0E82EF12CEC0EFD1E2E
:101F9000CE010196B7010E943E118E010F5E1F4FC8
:101FA000CE010596B8010E943E118985823040F02D
:101FB0008989823028F0C701B8010E94B61101C09A
:101FC0008FEF6896E6E00C943712A8E1B0E0EBEEF4
:101FD000FFE00C941B1269837A838B839C832D838F
:101FE0003E834F83588789E0E82EF12CEC0EFD1ECE
:101FF000CE010196B7010E943E118E010F5E1F4F68
:10200000CE010596B8010E943E118985823040F0CC
:102010008989823028F0C701B8010E94B61101C039
:1020200081E06896E6E00C943712ACE0B0E0EBE1BA
:10203000F0E10C941F1269837A838B839C83CE0119
:102040000196BE016B5F7F4F0E943E118D818230F1
:1020500061F1823050F1843021F48E81882351F176
:102060002EC02F81388537FD20C06E812F3131057C
:102070001CF06623F9F023C08EE190E0821B930BE5
:1020800029853A854B855C8504C0569547953795DB
:1020900027958A95D2F76623B1F0509540953095F3
:1020A00021953F4F4F4F5F4F0EC020E030E040E0A2
:1020B00050E009C02FEF3FEF4FEF5FE704C020E093
:1020C00030E040E050E8B901CA012C96E2E00C94FF
:1020D0003B12DF92EF92FF920F931F93FC01E4807B
:1020E000F58006811781D1808081823048F480E0BC
:1020F00090E0A0E1B0E0E82AF92A0A2B1B2BA5C04A
:10210000843009F49FC0823021F4EE24FF2487013B
:1021100005C0E114F1040105110519F4E0E0F0E057
:1021200096C0628173819FEF623879070CF05BC0C3
:1021300022E83FEF261B370B2A3131052CF020E037
:1021400030E040E050E02AC0B801A701022E04C0F0
:1021500076956795579547950A94D2F781E090E078
:10216000A0E0B0E004C0880F991FAA1FBB1F2A95EA
:10217000D2F70197A109B1098E219F21A023B12394
:102180000097A105B10521F081E090E0A0E0B0E06A
:102190009A01AB01282B392B4A2B5B2BDA01C901A1
:1021A0008F779070A070B07080349105A105B10553
:1021B00039F427FF09C0205C3F4F4F4F5F4F04C0E9
:1021C000215C3F4F4F4F5F4FE0E0F0E02030A0E058
:1021D0003A07A0E04A07A0E45A0710F0E1E0F0E077
:1021E00079018A0127C06038710564F5FB01E15867
:1021F000FF4FD801C7018F779070A070B070803406
:102200009105A105B10539F4E7FE0DC080E490E029
:10221000A0E0B0E004C08FE390E0A0E0B0E0E80E02
:10222000F91E0A1F1B1F17FF05C016950795F79487
:10223000E794319687E016950795F794E7948A9589
:10224000D1F705C0EE24FF248701EFEFF0E06E2FF9
:10225000679566276795902F9F77D794DD24D7944D
:102260008E2F8695492F462B582F5D29B701CA011D
:102270001F910F91FF90EF90DF900895FC01DB011B
:10228000408151812281622F6F7770E0221F2227C7
:10229000221F9381892F880F822B282F30E0991FCE
:1022A0009927991F11969C93119721153105A9F52E
:1022B000411551056105710511F482E037C082E8CE
:1022C0009FEF13969C938E9312979A01AB0167E050
:1022D000220F331F441F551F6A95D1F783E08C935B
:1022E0000DC0220F331F441F551F12968D919C91D4
:1022F0001397019713969C938E931297203080E04A
:10230000380780E0480780E4580758F314962D9367
:102310003D934D935C93179708952F3F310579F4C2
:10232000411551056105710519F484E08C930895F8
:1023300064FF03C081E08C9312C01C9210C02F5721
:10234000304013963C932E93129783E08C9387E052
:10235000440F551F661F771F8A95D1F77064149636
:102360004D935D936D937C93179708951F93DC01B4
:10237000FB019C91923008F447C08081823008F4C0
:1023800043C0943051F411961C91843099F58181A9
:10239000682F70E0611B71093FC0843021F09230DA
:1023A00031F48230B9F18181882389F12DC01196F1
:1023B0001C9111978230F1F081811817D9F412968F
:1023C0002D913C911397828193818217930794F00A
:1023D00028173907BCF014968D919D910D90BC91F2
:1023E000A02D2481358146815781281739074A0756
:1023F0005B0718F4112341F00AC082179307A40762
:10240000B50740F4112319F061E070E005C06FEFEB
:102410007FEF02C060E070E0CB011F9108952F9222
:102420003F924F925F926F927F928F929F92AF9264
:10243000BF92CF92DF92EF92FF920F931F93CF93B1
:10244000DF93CDB7DEB7CA1BDB0B0FB6F894DEBF48
:102450000FBECDBF09942A88398848885F846E846E
:102460007D848C849B84AA84B984C884DF80EE80B8
:10247000FD800C811B81AA81B981CE0FD11D0FB6C1
:10248000F894DEBF0FBECDBFED010895FB019F01A3
:10249000E8944230C4F04532B4F44A3029F497FB52
:1024A0001EF4909581959F4F642F77270E94771295
:1024B000805D8A330CF0895D8193CB010097A1F791
:1024C00016F45DE251931082C9010C946712DC018D
:1024D000FC01672F71917723E1F7329704C07C915B
:1024E0006D9370836291AE17BF07C8F30895AA1B5E
:1024F000BB1B51E107C0AA1FBB1FA617B70710F0EF
:10250000A61BB70B881F991F5A95A9F78095909520
:0A251000BC01CD010895F894FFCF3F
:10251A005365742050617373776F72643A00436F26
:10252A006E6669726D2050617373776F7264004EC4
:10253A006F74206D61746368656400436F6E6669C9
:10254A00726D6564002B3A204F70656E2067617466
:10255A0065002D3A205365742070617373776F722A
:10256A006400546869656600456E7465722050613E
:10257A007373776F7264004F70656E696E67206758
:10258A0061746500436C6F73696E67206761746577
:10259A000057726F6E672050617373776F726400B1
:0E25AA00446F6E65000000000000000000009D
:00000001FF
